{
  "contractName": "ProofOfExistence",
  "abi": [
    {
      "inputs": [],
      "stateMutability": "nonpayable",
      "type": "constructor"
    },
    {
      "anonymous": false,
      "inputs": [
        {
          "indexed": true,
          "internalType": "uint256",
          "name": "id",
          "type": "uint256"
        },
        {
          "indexed": false,
          "internalType": "bytes32",
          "name": "documentHash",
          "type": "bytes32"
        }
      ],
      "name": "ProofCreated",
      "type": "event"
    },
    {
      "inputs": [],
      "name": "owner",
      "outputs": [
        {
          "internalType": "address",
          "name": "",
          "type": "address"
        }
      ],
      "stateMutability": "view",
      "type": "function",
      "constant": true
    },
    {
      "inputs": [
        {
          "internalType": "uint256",
          "name": "id",
          "type": "uint256"
        },
        {
          "internalType": "bytes32",
          "name": "documentHash",
          "type": "bytes32"
        }
      ],
      "name": "notarizeHash",
      "outputs": [],
      "stateMutability": "nonpayable",
      "type": "function"
    },
    {
      "inputs": [
        {
          "internalType": "uint256",
          "name": "id",
          "type": "uint256"
        },
        {
          "internalType": "bytes32",
          "name": "documentHash",
          "type": "bytes32"
        }
      ],
      "name": "doesProofExist",
      "outputs": [
        {
          "internalType": "bool",
          "name": "",
          "type": "bool"
        }
      ],
      "stateMutability": "view",
      "type": "function",
      "constant": true
    }
  ],
  "bytecode": "0x608060405234801561001057600080fd5b50336000806101000a81548173ffffffffffffffffffffffffffffffffffffffff021916908373ffffffffffffffffffffffffffffffffffffffff1602179055506104d7806100606000396000f3fe608060405234801561001057600080fd5b50600436106100415760003560e01c806315ca41c3146100465780638da5cb5b14610062578063af519bf514610080575b600080fd5b610060600480360381019061005b9190610258565b6100b0565b005b61006a6101ea565b6040516100779190610307565b60405180910390f35b61009a60048036038101906100959190610258565b61020e565b6040516100a79190610322565b60405180910390f35b60008054906101000a900473ffffffffffffffffffffffffffffffffffffffff1673ffffffffffffffffffffffffffffffffffffffff163373ffffffffffffffffffffffffffffffffffffffff161461013e576040517f08c379a000000000000000000000000000000000000000000000000000000000815260040161013590610358565b60405180910390fd5b816000600160008381526020019081526020016000205414610195576040517f08c379a000000000000000000000000000000000000000000000000000000000815260040161018c90610378565b60405180910390fd5b816001600085815260200190815260200160002081905550827ffbbf8dad2632e75bc114426ca0d629c0beb6c4531599e68d148c70fbb4ffae6f836040516101dd919061033d565b60405180910390a2505050565b60008054906101000a900473ffffffffffffffffffffffffffffffffffffffff1681565b600081600160008581526020019081526020016000205414905092915050565b60008135905061023d81610473565b92915050565b6000813590506102528161048a565b92915050565b6000806040838503121561026b57600080fd5b600061027985828601610243565b925050602061028a8582860161022e565b9150509250929050565b61029d816103a9565b82525050565b6102ac816103bb565b82525050565b6102bb816103c7565b82525050565b60006102ce603283610398565b91506102d9826103fb565b604082019050919050565b60006102f1601b83610398565b91506102fc8261044a565b602082019050919050565b600060208201905061031c6000830184610294565b92915050565b600060208201905061033760008301846102a3565b92915050565b600060208201905061035260008301846102b2565b92915050565b60006020820190508181036000830152610371816102c1565b9050919050565b60006020820190508181036000830152610391816102e4565b9050919050565b600082825260208201905092915050565b60006103b4826103d1565b9050919050565b60008115159050919050565b6000819050919050565b600073ffffffffffffffffffffffffffffffffffffffff82169050919050565b6000819050919050565b7f4f6e6c7920746865206f776e657220697320616c6c6f77656420746f2061636360008201527f65737320746869732066756e6374696f6e2e0000000000000000000000000000602082015250565b7f4e6f20686173682065786973747320666f7220746869732069642e0000000000600082015250565b61047c816103c7565b811461048757600080fd5b50565b610493816103f1565b811461049e57600080fd5b5056fea2646970667358221220077e4f8e27a82cf52737e99321be44c295098b47ee1a4ce932e969d34361e92e64736f6c63430008010033",
  "immutableReferences": {},
  "source": "// SPDX-License-Identifier: MIT\r\npragma solidity ^0.8.1;\r\n\r\ncontract ProofOfExistence {\r\n    event ProofCreated(uint256 indexed id, bytes32 documentHash);\r\n\r\n    address public owner;\r\n\r\n    mapping(uint256 => bytes32) hashesById;\r\n\r\n    modifier onlyOwner() {\r\n        require(\r\n            msg.sender == owner,\r\n            \"Only the owner is allowed to access this function.\"\r\n        );\r\n        _;\r\n    }\r\n\r\n    modifier noHashExistsYet(uint256 id) {\r\n        require(hashesById[id] == \"\", \"No hash exists for this id.\");\r\n        _;\r\n    }\r\n\r\n    constructor() {\r\n        owner = msg.sender;\r\n    }\r\n\r\n    function notarizeHash(uint256 id, bytes32 documentHash)\r\n        public\r\n        onlyOwner\r\n        noHashExistsYet(id)\r\n    {\r\n        hashesById[id] = documentHash;\r\n\r\n        emit ProofCreated(id, documentHash);\r\n    }\r\n\r\n    function doesProofExist(uint256 id, bytes32 documentHash)\r\n        public\r\n        view\r\n        returns (bool)\r\n    {\r\n        return hashesById[id] == documentHash;\r\n    }\r\n}",
  "sourcePath": "C:/Users/Mathias/dev/blockchain/ekip5Blockchain/Truffle/contracts/ProofOfExistence.sol",
  "compiler": {
    "name": "solc",
    "version": "0.8.1+commit.df193b15.Emscripten.clang"
  },
  "schemaVersion": "3.3.4",
  "updatedAt": "2021-03-24T22:02:23.446Z",
  "networkType": "ethereum",
  "devdoc": {
    "kind": "dev",
    "methods": {},
    "version": 1
  },
  "userdoc": {
    "kind": "user",
    "methods": {},
    "version": 1
  }
}