{
  "contractName": "ProofDiploma",
  "abi": [
    {
      "inputs": [],
      "stateMutability": "nonpayable",
      "type": "constructor"
    },
    {
      "inputs": [
        {
          "internalType": "uint256",
          "name": "",
          "type": "uint256"
        }
      ],
      "name": "_Diplomas",
      "outputs": [
        {
          "internalType": "uint256",
          "name": "id",
          "type": "uint256"
        },
        {
          "internalType": "string",
          "name": "name",
          "type": "string"
        },
        {
          "internalType": "string",
          "name": "diplomaNumber",
          "type": "string"
        }
      ],
      "stateMutability": "view",
      "type": "function",
      "constant": true
    },
    {
      "inputs": [],
      "name": "myFunction",
      "outputs": [
        {
          "internalType": "string",
          "name": "_mystring",
          "type": "string"
        }
      ],
      "stateMutability": "nonpayable",
      "type": "function"
    },
    {
      "inputs": [
        {
          "internalType": "string",
          "name": "_name",
          "type": "string"
        },
        {
          "internalType": "string",
          "name": "_diplomaNumber",
          "type": "string"
        }
      ],
      "name": "create_item",
      "outputs": [],
      "stateMutability": "nonpayable",
      "type": "function"
    },
    {
      "inputs": [
        {
          "internalType": "address",
          "name": "_auth",
          "type": "address"
        }
      ],
      "name": "add_authorized",
      "outputs": [],
      "stateMutability": "nonpayable",
      "type": "function"
    },
    {
      "inputs": [
        {
          "internalType": "address",
          "name": "_tocheck",
          "type": "address"
        }
      ],
      "name": "check_authorized",
      "outputs": [
        {
          "internalType": "bool",
          "name": "",
          "type": "bool"
        }
      ],
      "stateMutability": "view",
      "type": "function",
      "constant": true
    },
    {
      "inputs": [
        {
          "internalType": "string",
          "name": "_diplomaNumber",
          "type": "string"
        }
      ],
      "name": "item_present",
      "outputs": [
        {
          "components": [
            {
              "internalType": "uint256",
              "name": "id",
              "type": "uint256"
            },
            {
              "internalType": "string",
              "name": "name",
              "type": "string"
            },
            {
              "internalType": "string",
              "name": "diplomaNumber",
              "type": "string"
            }
          ],
          "internalType": "struct ProofDiploma.Diploma",
          "name": "",
          "type": "tuple"
        }
      ],
      "stateMutability": "view",
      "type": "function",
      "constant": true
    }
  ],
  "bytecode": "0x60806040526000805534801561001457600080fd5b5033600560006101000a81548173ffffffffffffffffffffffffffffffffffffffff021916908373ffffffffffffffffffffffffffffffffffffffff1602179055506001339080600181540180825580915050600190039060005260206000200160009091909190916101000a81548173ffffffffffffffffffffffffffffffffffffffff021916908373ffffffffffffffffffffffffffffffffffffffff1602179055506001600360003373ffffffffffffffffffffffffffffffffffffffff1673ffffffffffffffffffffffffffffffffffffffff16815260200190815260200160002060006101000a81548160ff021916908315150217905550611085806101206000396000f3fe608060405234801561001057600080fd5b50600436106100625760003560e01c806309a2b7ac1461006757806314c56f21146100975780632aaad711146100b35780635da68f9f146100e5578063c3780a3a14610115578063d35a3daf14610133575b600080fd5b610081600480360361007c9190810190610ab0565b61014f565b60405161008e9190610e3f565b60405180910390f35b6100b160048036036100ac9190810190610af1565b6103a5565b005b6100cd60048036036100c89190810190610b5d565b610501565b6040516100dc93929190610e61565b60405180910390f35b6100ff60048036036100fa9190810190610a87565b610668565b60405161010c9190610de2565b60405180910390f35b61011d61068b565b60405161012a9190610dfd565b60405180910390f35b61014d60048036036101489190810190610a87565b6106ab565b005b6101576108bc565b60008090505b600280549050811015610364576002818154811061017757fe5b90600052602060002090600302016002016040516020016101989190610dcb565b60405160208183030381529060405280519060200120836040516020016101bf9190610db4565b60405160208183030381529060405280519060200120141561035757600281815481106101e857fe5b906000526020600020906003020160405180606001604052908160008201548152602001600182018054600181600116156101000203166002900480601f0160208091040260200160405190810160405280929190818152602001828054600181600116156101000203166002900480156102a45780601f10610279576101008083540402835291602001916102a4565b820191906000526020600020905b81548152906001019060200180831161028757829003601f168201915b50505050508152602001600282018054600181600116156101000203166002900480601f0160208091040260200160405190810160405280929190818152602001828054600181600116156101000203166002900480156103465780601f1061031b57610100808354040283529160200191610346565b820191906000526020600020905b81548152906001019060200180831161032957829003601f168201915b5050505050815250509150506103a0565b808060010191505061015d565b506040517f08c379a000000000000000000000000000000000000000000000000000000000815260040161039790610e1f565b60405180910390fd5b919050565b6002604051806060016040528060005481526020018481526020018381525090806001815401808255809150506001900390600052602060002090600302016000909190919091506000820151816000015560208201518160010190805190602001906104139291906108dd565b5060408201518160020190805190602001906104309291906108dd565b50505060026000548154811061044257fe5b9060005260206000209060030201600460003373ffffffffffffffffffffffffffffffffffffffff1673ffffffffffffffffffffffffffffffffffffffff16815260200190815260200160002060008201548160000155600182018160010190805460018160011615610100020316600290046104c092919061095d565b50600282018160020190805460018160011615610100020316600290046104e892919061095d565b5090505060008081548092919060010191905055505050565b6002818154811061050e57fe5b9060005260206000209060030201600091509050806000015490806001018054600181600116156101000203166002900480601f0160208091040260200160405190810160405280929190818152602001828054600181600116156101000203166002900480156105c05780601f10610595576101008083540402835291602001916105c0565b820191906000526020600020905b8154815290600101906020018083116105a357829003601f168201915b505050505090806002018054600181600116156101000203166002900480601f01602080910402602001604051908101604052809291908181526020018280546001816001161561010002031660029004801561065e5780601f106106335761010080835404028352916020019161065e565b820191906000526020600020905b81548152906001019060200180831161064157829003601f168201915b5050505050905083565b60006106738261081a565b156106815760019050610686565b600090505b919050565b60606040518060600160405280602f8152602001611021602f9139905090565b600560009054906101000a900473ffffffffffffffffffffffffffffffffffffffff1673ffffffffffffffffffffffffffffffffffffffff163373ffffffffffffffffffffffffffffffffffffffff161461070557600080fd5b600360008273ffffffffffffffffffffffffffffffffffffffff1673ffffffffffffffffffffffffffffffffffffffff16815260200190815260200160002060009054906101000a900460ff161561075c57600080fd5b6001819080600181540180825580915050600190039060005260206000200160009091909190916101000a81548173ffffffffffffffffffffffffffffffffffffffff021916908373ffffffffffffffffffffffffffffffffffffffff1602179055506001600360008373ffffffffffffffffffffffffffffffffffffffff1673ffffffffffffffffffffffffffffffffffffffff16815260200190815260200160002060006101000a81548160ff02191690831515021790555050565b600080600090505b6001805490508110156108b1578273ffffffffffffffffffffffffffffffffffffffff166001828154811061085357fe5b9060005260206000200160009054906101000a900473ffffffffffffffffffffffffffffffffffffffff1673ffffffffffffffffffffffffffffffffffffffff1614156108a45760019150506108b7565b8080600101915050610822565b50600090505b919050565b60405180606001604052806000815260200160608152602001606081525090565b828054600181600116156101000203166002900490600052602060002090601f016020900481019282601f1061091e57805160ff191683800117855561094c565b8280016001018555821561094c579182015b8281111561094b578251825591602001919060010190610930565b5b50905061095991906109e4565b5090565b828054600181600116156101000203166002900490600052602060002090601f016020900481019282601f1061099657805485556109d3565b828001600101855582156109d357600052602060002091601f016020900482015b828111156109d25782548255916001019190600101906109b7565b5b5090506109e091906109e4565b5090565b610a0691905b80821115610a025760008160009055506001016109ea565b5090565b90565b600081359050610a1881610ff2565b92915050565b600082601f830112610a2f57600080fd5b8135610a42610a3d82610ed3565b610ea6565b91508082526020830160208301858383011115610a5e57600080fd5b610a69838284610f9f565b50505092915050565b600081359050610a8181611009565b92915050565b600060208284031215610a9957600080fd5b6000610aa784828501610a09565b91505092915050565b600060208284031215610ac257600080fd5b600082013567ffffffffffffffff811115610adc57600080fd5b610ae884828501610a1e565b91505092915050565b60008060408385031215610b0457600080fd5b600083013567ffffffffffffffff811115610b1e57600080fd5b610b2a85828601610a1e565b925050602083013567ffffffffffffffff811115610b4757600080fd5b610b5385828601610a1e565b9150509250929050565b600060208284031215610b6f57600080fd5b6000610b7d84828501610a72565b91505092915050565b610b8f81610f69565b82525050565b6000610ba082610f1f565b610baa8185610f3b565b9350610bba818560208601610fae565b610bc381610fe1565b840191505092915050565b6000610bd982610f1f565b610be38185610f4c565b9350610bf3818560208601610fae565b80840191505092915050565b6000610c0a82610f14565b610c148185610f2a565b9350610c24818560208601610fae565b610c2d81610fe1565b840191505092915050565b6000610c4382610f14565b610c4d8185610f3b565b9350610c5d818560208601610fae565b610c6681610fe1565b840191505092915050565b600081546001811660008114610c8e5760018114610cb357610cf7565b607f6002830416610c9f8187610f4c565b955060ff1983168652808601935050610cf7565b60028204610cc18187610f4c565b9550610ccc85610eff565b60005b82811015610cee57815481890152600182019150602081019050610ccf565b82880195505050505b505092915050565b6000610d0c601783610f3b565b91507f4469706c6f6d61206973206e6f74207265636f726465720000000000000000006000830152602082019050919050565b6000606083016000830151610d576000860182610d96565b5060208301518482036020860152610d6f8282610bff565b91505060408301518482036040860152610d898282610bff565b9150508091505092915050565b610d9f81610f95565b82525050565b610dae81610f95565b82525050565b6000610dc08284610bce565b915081905092915050565b6000610dd78284610c71565b915081905092915050565b6000602082019050610df76000830184610b86565b92915050565b60006020820190508181036000830152610e178184610b95565b905092915050565b60006020820190508181036000830152610e3881610cff565b9050919050565b60006020820190508181036000830152610e598184610d3f565b905092915050565b6000606082019050610e766000830186610da5565b8181036020830152610e888185610c38565b90508181036040830152610e9c8184610c38565b9050949350505050565b6000604051905081810181811067ffffffffffffffff82111715610ec957600080fd5b8060405250919050565b600067ffffffffffffffff821115610eea57600080fd5b601f19601f8301169050602081019050919050565b60008190508160005260206000209050919050565b600081519050919050565b600081519050919050565b600082825260208201905092915050565b600082825260208201905092915050565b600081905092915050565b6000610f6282610f75565b9050919050565b60008115159050919050565b600073ffffffffffffffffffffffffffffffffffffffff82169050919050565b6000819050919050565b82818337600083830152505050565b60005b83811015610fcc578082015181840152602081019050610fb1565b83811115610fdb576000848401525b50505050565b6000601f19601f8301169050919050565b610ffb81610f57565b811461100657600080fd5b50565b61101281610f95565b811461101d57600080fd5b5056fe79616c6161616161616161616161616161616161616161616161616161616161616161616161616161616161616161a26469706673582212208683139269c3ce39c4a8af3ac522678bfe92f9954359401d226215f02ba067aa64736f6c63430006000033",
  "source": "pragma solidity ^0.6.0;\r\npragma experimental ABIEncoderV2;\r\n\r\ncontract ProofDiploma {\r\n    \r\n    struct Diploma {\r\n        uint id;\r\n        string name;\r\n        string diplomaNumber;\r\n    }\r\n    \r\n   uint ids=0;\r\n   address[] _authorized;\r\n   Diploma[] public _Diplomas;\r\n   mapping(address=>bool) authorized;\r\n   mapping(address => Diploma) _items;\r\n   address owner;\r\n   \r\n   \r\n   constructor() public {\r\n        owner=msg.sender;\r\n        _authorized.push(msg.sender);\r\n        authorized[msg.sender] = true;\r\n    }\r\n\r\n    function myFunction() public returns(string memory _mystring) {\r\n        return (\"yalaaaaaaaaaaaaaaaaaaaaaaaaaaaaaaaaaaaaaaaaaaaa\");\r\n    }\r\n    \r\n   function create_item(string memory _name, string memory _diplomaNumber) public{\r\n       //require(authorized[msg.sender]);\r\n       _Diplomas.push(Diploma(ids,_name,_diplomaNumber));\r\n       _items[msg.sender] = _Diplomas[ids];\r\n       ids++;\r\n   }\r\n   \r\n   function add_authorized(address _auth) public{\r\n       require(msg.sender == owner);\r\n       require(!authorized[_auth]);\r\n       _authorized.push(_auth);\r\n       authorized[_auth] = true;\r\n   }\r\n   \r\n   function check_authorized(address _tocheck) view public returns(bool){\r\n      if(find(_tocheck)){\r\n       return true;}\r\n       \r\n       return false;\r\n   }\r\n   \r\n   \r\n   function item_present(string memory _diplomaNumber) view public returns(Diploma memory) {\r\n    for(uint i = 0; i < _Diplomas.length; i++) {\r\n       if( keccak256(abi.encodePacked(_diplomaNumber))==keccak256(abi.encodePacked(_Diplomas[i].diplomaNumber))){\r\n        return (_Diplomas[i]);\r\n      }\r\n    }\r\n    revert('Diploma is not recorder');\r\n  }\r\n\r\n\r\n\r\n   \r\n   function find(address _addr) view internal returns(bool) {\r\n    for(uint i = 0; i < _authorized.length; i++) {\r\n      if(_authorized[i] == _addr) {\r\n        return true;\r\n      }\r\n    }\r\n    return false;\r\n  }\r\n\r\n}",
  "sourcePath": "C:/Users/Mathias/dev/blockchain/ekip5Blockchain/Truffle/contracts/ProofDiploma.sol",
  "compiler": {
    "name": "solc",
    "version": "0.6.0+commit.26b70077.Emscripten.clang"
  },
  "schemaVersion": "3.3.4",
  "updatedAt": "2021-03-25T12:41:07.603Z",
  "networkType": "ethereum",
  "devdoc": {
    "methods": {}
  },
  "userdoc": {
    "methods": {}
  }
}