{
  "contractName": "ProofDiploma",
  "abi": [
    {
      "inputs": [],
      "stateMutability": "nonpayable",
      "type": "constructor"
    },
    {
      "inputs": [
        {
          "internalType": "uint256",
          "name": "",
          "type": "uint256"
        }
      ],
      "name": "_Diplomas",
      "outputs": [
        {
          "internalType": "uint256",
          "name": "id",
          "type": "uint256"
        },
        {
          "internalType": "string",
          "name": "name",
          "type": "string"
        },
        {
          "internalType": "string",
          "name": "diplomaNumber",
          "type": "string"
        }
      ],
      "stateMutability": "view",
      "type": "function"
    },
    {
      "inputs": [],
      "name": "myFunction",
      "outputs": [
        {
          "internalType": "string",
          "name": "_mystring",
          "type": "string"
        }
      ],
      "stateMutability": "nonpayable",
      "type": "function"
    },
    {
      "inputs": [
        {
          "internalType": "string",
          "name": "_name",
          "type": "string"
        },
        {
          "internalType": "string",
          "name": "_diplomaNumber",
          "type": "string"
        }
      ],
      "name": "create_item",
      "outputs": [],
      "stateMutability": "nonpayable",
      "type": "function"
    },
    {
      "inputs": [
        {
          "internalType": "address",
          "name": "_auth",
          "type": "address"
        }
      ],
      "name": "add_authorized",
      "outputs": [],
      "stateMutability": "nonpayable",
      "type": "function"
    },
    {
      "inputs": [
        {
          "internalType": "address",
          "name": "_tocheck",
          "type": "address"
        }
      ],
      "name": "check_authorized",
      "outputs": [
        {
          "internalType": "bool",
          "name": "",
          "type": "bool"
        }
      ],
      "stateMutability": "view",
      "type": "function"
    },
    {
      "inputs": [
        {
          "internalType": "string",
          "name": "_diplomaNumber",
          "type": "string"
        }
      ],
      "name": "item_present",
      "outputs": [
        {
          "components": [
            {
              "internalType": "uint256",
              "name": "id",
              "type": "uint256"
            },
            {
              "internalType": "string",
              "name": "name",
              "type": "string"
            },
            {
              "internalType": "string",
              "name": "diplomaNumber",
              "type": "string"
            }
          ],
          "internalType": "struct ProofDiploma.Diploma",
          "name": "",
          "type": "tuple"
        }
      ],
      "stateMutability": "view",
      "type": "function"
    }
  ],
  "bytecode": "0x60806040526000805534801561001457600080fd5b5033600560006101000a81548173ffffffffffffffffffffffffffffffffffffffff021916908373ffffffffffffffffffffffffffffffffffffffff1602179055506001339080600181540180825580915050600190039060005260206000200160009091909190916101000a81548173ffffffffffffffffffffffffffffffffffffffff021916908373ffffffffffffffffffffffffffffffffffffffff1602179055506001600360003373ffffffffffffffffffffffffffffffffffffffff1673ffffffffffffffffffffffffffffffffffffffff16815260200190815260200160002060006101000a81548160ff021916908315150217905550611258806101206000396000f3fe608060405234801561001057600080fd5b50600436106100625760003560e01c806309a2b7ac1461006757806314c56f21146100975780632aaad711146100b35780635da68f9f146100e5578063c3780a3a14610115578063d35a3daf14610133575b600080fd5b610081600480360381019061007c9190610b94565b61014f565b60405161008e9190610ebe565b60405180910390f35b6100b160048036038101906100ac9190610bd5565b6103e2565b005b6100cd60048036038101906100c89190610c41565b6105b7565b6040516100dc93929190610ee0565b60405180910390f35b6100ff60048036038101906100fa9190610b6b565b610701565b60405161010c9190610e61565b60405180910390f35b61011d610724565b60405161012a9190610e7c565b60405180910390f35b61014d60048036038101906101489190610b6b565b610744565b005b610157610988565b60005b6002805490508110156103a157600281815481106101a1577f4e487b7100000000000000000000000000000000000000000000000000000000600052603260045260246000fd5b90600052602060002090600302016002016040516020016101c29190610e4a565b60405160208183030381529060405280519060200120836040516020016101e99190610e33565b60405160208183030381529060405280519060200120141561038e576002818154811061023f577f4e487b7100000000000000000000000000000000000000000000000000000000600052603260045260246000fd5b90600052602060002090600302016040518060600160405290816000820154815260200160018201805461027290611052565b80601f016020809104026020016040519081016040528092919081815260200182805461029e90611052565b80156102eb5780601f106102c0576101008083540402835291602001916102eb565b820191906000526020600020905b8154815290600101906020018083116102ce57829003601f168201915b5050505050815260200160028201805461030490611052565b80601f016020809104026020016040519081016040528092919081815260200182805461033090611052565b801561037d5780601f106103525761010080835404028352916020019161037d565b820191906000526020600020905b81548152906001019060200180831161036057829003601f168201915b5050505050815250509150506103dd565b8080610399906110b5565b91505061015a565b506040517f08c379a00000000000000000000000000000000000000000000000000000000081526004016103d490610e9e565b60405180910390fd5b919050565b600360003373ffffffffffffffffffffffffffffffffffffffff1673ffffffffffffffffffffffffffffffffffffffff16815260200190815260200160002060009054906101000a900460ff1661043857600080fd5b6002604051806060016040528060005481526020018481526020018381525090806001815401808255809150506001900390600052602060002090600302016000909190919091506000820151816000015560208201518160010190805190602001906104a69291906109a9565b5060408201518160020190805190602001906104c39291906109a9565b505050600260005481548110610502577f4e487b7100000000000000000000000000000000000000000000000000000000600052603260045260246000fd5b9060005260206000209060030201600460003373ffffffffffffffffffffffffffffffffffffffff1673ffffffffffffffffffffffffffffffffffffffff16815260200190815260200160002060008201548160000155600182018160010190805461056d90611052565b610578929190610a2f565b50600282018160020190805461058d90611052565b610598929190610a2f565b509050506000808154809291906105ae906110b5565b91905055505050565b600281815481106105c757600080fd5b90600052602060002090600302016000915090508060000154908060010180546105f090611052565b80601f016020809104026020016040519081016040528092919081815260200182805461061c90611052565b80156106695780601f1061063e57610100808354040283529160200191610669565b820191906000526020600020905b81548152906001019060200180831161064c57829003601f168201915b50505050509080600201805461067e90611052565b80601f01602080910402602001604051908101604052809291908181526020018280546106aa90611052565b80156106f75780601f106106cc576101008083540402835291602001916106f7565b820191906000526020600020905b8154815290600101906020018083116106da57829003601f168201915b5050505050905083565b600061070c826108b3565b1561071a576001905061071f565b600090505b919050565b60606040518060600160405280602f81526020016111f4602f9139905090565b600560009054906101000a900473ffffffffffffffffffffffffffffffffffffffff1673ffffffffffffffffffffffffffffffffffffffff163373ffffffffffffffffffffffffffffffffffffffff161461079e57600080fd5b600360008273ffffffffffffffffffffffffffffffffffffffff1673ffffffffffffffffffffffffffffffffffffffff16815260200190815260200160002060009054906101000a900460ff16156107f557600080fd5b6001819080600181540180825580915050600190039060005260206000200160009091909190916101000a81548173ffffffffffffffffffffffffffffffffffffffff021916908373ffffffffffffffffffffffffffffffffffffffff1602179055506001600360008373ffffffffffffffffffffffffffffffffffffffff1673ffffffffffffffffffffffffffffffffffffffff16815260200190815260200160002060006101000a81548160ff02191690831515021790555050565b600080600090505b60018054905081101561097d578273ffffffffffffffffffffffffffffffffffffffff1660018281548110610919577f4e487b7100000000000000000000000000000000000000000000000000000000600052603260045260246000fd5b9060005260206000200160009054906101000a900473ffffffffffffffffffffffffffffffffffffffff1673ffffffffffffffffffffffffffffffffffffffff16141561096a576001915050610983565b8080610975906110b5565b9150506108bb565b50600090505b919050565b60405180606001604052806000815260200160608152602001606081525090565b8280546109b590611052565b90600052602060002090601f0160209004810192826109d75760008555610a1e565b82601f106109f057805160ff1916838001178555610a1e565b82800160010185558215610a1e579182015b82811115610a1d578251825591602001919060010190610a02565b5b509050610a2b9190610abc565b5090565b828054610a3b90611052565b90600052602060002090601f016020900481019282610a5d5760008555610aab565b82601f10610a6e5780548555610aab565b82800160010185558215610aab57600052602060002091601f016020900482015b82811115610aaa578254825591600101919060010190610a8f565b5b509050610ab89190610abc565b5090565b5b80821115610ad5576000816000905550600101610abd565b5090565b6000610aec610ae784610f4a565b610f25565b905082815260208101848484011115610b0457600080fd5b610b0f848285611010565b509392505050565b600081359050610b26816111c5565b92915050565b600082601f830112610b3d57600080fd5b8135610b4d848260208601610ad9565b91505092915050565b600081359050610b65816111dc565b92915050565b600060208284031215610b7d57600080fd5b6000610b8b84828501610b17565b91505092915050565b600060208284031215610ba657600080fd5b600082013567ffffffffffffffff811115610bc057600080fd5b610bcc84828501610b2c565b91505092915050565b60008060408385031215610be857600080fd5b600083013567ffffffffffffffff811115610c0257600080fd5b610c0e85828601610b2c565b925050602083013567ffffffffffffffff811115610c2b57600080fd5b610c3785828601610b2c565b9150509250929050565b600060208284031215610c5357600080fd5b6000610c6184828501610b56565b91505092915050565b610c7381610fda565b82525050565b6000610c8482610f90565b610c8e8185610f9b565b9350610c9e81856020860161101f565b610ca78161118b565b840191505092915050565b6000610cbd82610f90565b610cc78185610fac565b9350610cd781856020860161101f565b610ce08161118b565b840191505092915050565b6000610cf682610f90565b610d008185610fbd565b9350610d1081856020860161101f565b80840191505092915050565b60008154610d2981611052565b610d338186610fbd565b94506001821660008114610d4e5760018114610d5f57610d92565b60ff19831686528186019350610d92565b610d6885610f7b565b60005b83811015610d8a57815481890152600182019150602081019050610d6b565b838801955050505b50505092915050565b6000610da8601783610fac565b9150610db38261119c565b602082019050919050565b6000606083016000830151610dd66000860182610e15565b5060208301518482036020860152610dee8282610c79565b91505060408301518482036040860152610e088282610c79565b9150508091505092915050565b610e1e81611006565b82525050565b610e2d81611006565b82525050565b6000610e3f8284610ceb565b915081905092915050565b6000610e568284610d1c565b915081905092915050565b6000602082019050610e766000830184610c6a565b92915050565b60006020820190508181036000830152610e968184610cb2565b905092915050565b60006020820190508181036000830152610eb781610d9b565b9050919050565b60006020820190508181036000830152610ed88184610dbe565b905092915050565b6000606082019050610ef56000830186610e24565b8181036020830152610f078185610cb2565b90508181036040830152610f1b8184610cb2565b9050949350505050565b6000610f2f610f40565b9050610f3b8282611084565b919050565b6000604051905090565b600067ffffffffffffffff821115610f6557610f6461115c565b5b610f6e8261118b565b9050602081019050919050565b60008190508160005260206000209050919050565b600081519050919050565b600082825260208201905092915050565b600082825260208201905092915050565b600081905092915050565b6000610fd382610fe6565b9050919050565b60008115159050919050565b600073ffffffffffffffffffffffffffffffffffffffff82169050919050565b6000819050919050565b82818337600083830152505050565b60005b8381101561103d578082015181840152602081019050611022565b8381111561104c576000848401525b50505050565b6000600282049050600182168061106a57607f821691505b6020821081141561107e5761107d61112d565b5b50919050565b61108d8261118b565b810181811067ffffffffffffffff821117156110ac576110ab61115c565b5b80604052505050565b60006110c082611006565b91507fffffffffffffffffffffffffffffffffffffffffffffffffffffffffffffffff8214156110f3576110f26110fe565b5b600182019050919050565b7f4e487b7100000000000000000000000000000000000000000000000000000000600052601160045260246000fd5b7f4e487b7100000000000000000000000000000000000000000000000000000000600052602260045260246000fd5b7f4e487b7100000000000000000000000000000000000000000000000000000000600052604160045260246000fd5b6000601f19601f8301169050919050565b7f56656869636c65206973206e6f74207265636f72646572000000000000000000600082015250565b6111ce81610fc8565b81146111d957600080fd5b50565b6111e581611006565b81146111f057600080fd5b5056fe79616c6161616161616161616161616161616161616161616161616161616161616161616161616161616161616161a264697066735822122075a04917998d651f1a57232c4102694c8ba6a60fdd4736c4aeea4ced34768b1664736f6c63430008010033",
  "immutableReferences": {},
  "source": "pragma solidity ^0.8.1;\r\npragma experimental ABIEncoderV2;\r\n\r\ncontract ProofDiploma {\r\n    \r\n    struct Diploma {\r\n        uint id;\r\n        string name;\r\n        string diplomaNumber;\r\n    }\r\n    \r\n   uint ids=0;\r\n   address[] _authorized;\r\n   Diploma[] public _Diplomas;\r\n   mapping(address=>bool) authorized;\r\n   mapping(address => Diploma) _items;\r\n   address owner;\r\n   \r\n   \r\n   constructor() public {\r\n        owner=msg.sender;\r\n        _authorized.push(msg.sender);\r\n        authorized[msg.sender] = true;\r\n    }\r\n\r\n    function myFunction() public returns(string memory _mystring) {\r\n        return (\"yalaaaaaaaaaaaaaaaaaaaaaaaaaaaaaaaaaaaaaaaaaaaa\");\r\n    }\r\n    \r\n   function create_item(string memory _name, string memory _diplomaNumber) public{\r\n       require(authorized[msg.sender]);\r\n       _Diplomas.push(Diploma(ids,_name,_diplomaNumber));\r\n       _items[msg.sender] = _Diplomas[ids];\r\n       ids++;\r\n   }\r\n   \r\n   function add_authorized(address _auth) public{\r\n       require(msg.sender == owner);\r\n       require(!authorized[_auth]);\r\n       _authorized.push(_auth);\r\n       authorized[_auth] = true;\r\n   }\r\n   \r\n   function check_authorized(address _tocheck) view public returns(bool){\r\n      if(find(_tocheck)){\r\n       return true;}\r\n       \r\n       return false;\r\n   }\r\n   \r\n   \r\n   function item_present(string memory _diplomaNumber) view public returns(Diploma memory) {\r\n    for(uint i = 0; i < _Diplomas.length; i++) {\r\n       if( keccak256(abi.encodePacked(_diplomaNumber))==keccak256(abi.encodePacked(_Diplomas[i].diplomaNumber))){\r\n        return (_Diplomas[i]);\r\n      }\r\n    }\r\n    revert('Vehicle is not recorder');\r\n  }\r\n\r\n\r\n\r\n   \r\n   function find(address _addr) view internal returns(bool) {\r\n    for(uint i = 0; i < _authorized.length; i++) {\r\n      if(_authorized[i] == _addr) {\r\n        return true;\r\n      }\r\n    }\r\n    return false;\r\n  }\r\n\r\n}",
  "sourcePath": "C:/Users/Mathias/dev/blockchain/ekip5Blockchain/Truffle/contracts/ProofDiploma.sol",
  "compiler": {
    "name": "solc",
    "version": "0.8.1+commit.df193b15.Emscripten.clang"
  },
  "schemaVersion": "3.3.4",
  "updatedAt": "2021-03-24T22:50:07.583Z",
  "devdoc": {
    "kind": "dev",
    "methods": {},
    "version": 1
  },
  "userdoc": {
    "kind": "user",
    "methods": {},
    "version": 1
  }
}